{
  "contractName": "TimelockFactory",
  "abi": [
    {
      "inputs": [
        {
          "internalType": "address payable",
          "name": "_timelockContractAddress",
          "type": "address"
        }
      ],
      "stateMutability": "nonpayable",
      "type": "constructor"
    },
    {
      "anonymous": false,
      "inputs": [
        {
          "indexed": true,
          "internalType": "address",
          "name": "_wallet",
          "type": "address"
        },
        {
          "indexed": true,
          "internalType": "address",
          "name": "_owner",
          "type": "address"
        },
        {
          "indexed": false,
          "internalType": "string",
          "name": "_description",
          "type": "string"
        },
        {
          "indexed": false,
          "internalType": "uint256",
          "name": "_createdAt",
          "type": "uint256"
        }
      ],
      "name": "WalletCreatedEvent",
      "type": "event"
    },
    {
      "inputs": [],
      "name": "owner",
      "outputs": [
        {
          "internalType": "address",
          "name": "",
          "type": "address"
        }
      ],
      "stateMutability": "view",
      "type": "function"
    },
    {
      "inputs": [],
      "name": "getWallets",
      "outputs": [
        {
          "internalType": "address[]",
          "name": "_wallets",
          "type": "address[]"
        }
      ],
      "stateMutability": "view",
      "type": "function"
    },
    {
      "inputs": [
        {
          "internalType": "string",
          "name": "_description",
          "type": "string"
        }
      ],
      "name": "newTimeLockedWallet",
      "outputs": [
        {
          "internalType": "address",
          "name": "wallet",
          "type": "address"
        }
      ],
      "stateMutability": "nonpayable",
      "type": "function"
    },
    {
      "inputs": [
        {
          "internalType": "bytes32",
          "name": "_txId",
          "type": "bytes32"
        }
      ],
      "name": "transferFunds",
      "outputs": [],
      "stateMutability": "payable",
      "type": "function"
    }
  ],
  "bytecode": "0x608060405234801561001057600080fd5b5060405162005fe438038062005fe48339818101604052810190610034919061011e565b806000806101000a81548173ffffffffffffffffffffffffffffffffffffffff021916908373ffffffffffffffffffffffffffffffffffffffff16021790555033600160006101000a81548173ffffffffffffffffffffffffffffffffffffffff021916908373ffffffffffffffffffffffffffffffffffffffff1602179055505061014b565b600080fd5b600073ffffffffffffffffffffffffffffffffffffffff82169050919050565b60006100eb826100c0565b9050919050565b6100fb816100e0565b811461010657600080fd5b50565b600081519050610118816100f2565b92915050565b600060208284031215610134576101336100bb565b5b600061014284828501610109565b91505092915050565b615e89806200015b6000396000f3fe608060405260043610620000435760003560e01c8062ab9cf714620000485780638da5cb5b1462000068578063db7a46051462000098578063f2bba5c514620000c8575b600080fd5b620000666004803603810190620000609190620005a3565b6200010c565b005b3480156200007557600080fd5b506200008062000306565b6040516200008f91906200061a565b60405180910390f35b348015620000a557600080fd5b50620000b06200032c565b604051620000bf919062000705565b60405180910390f35b348015620000d557600080fd5b50620000f46004803603810190620000ee91906200088b565b620003f9565b6040516200010391906200061a565b60405180910390f35b60008054906101000a900473ffffffffffffffffffffffffffffffffffffffff1673ffffffffffffffffffffffffffffffffffffffff163373ffffffffffffffffffffffffffffffffffffffff16146200019d576040517f08c379a0000000000000000000000000000000000000000000000000000000008152600401620001949062000963565b60405180910390fd5b60008060008054906101000a900473ffffffffffffffffffffffffffffffffffffffff1673ffffffffffffffffffffffffffffffffffffffff1663228250c9846040518263ffffffff1660e01b8152600401620001fb919062000996565b600060405180830381865afa15801562000219573d6000803e3d6000fd5b505050506040513d6000823e3d601f19601f8201168201806040525081019062000244919062000b27565b50509450945050505060008273ffffffffffffffffffffffffffffffffffffffff1682604051620002759062000c2e565b60006040518083038185875af1925050503d8060008114620002b4576040519150601f19603f3d011682016040523d82523d6000602084013e620002b9565b606091505b505090508062000300576040517f08c379a0000000000000000000000000000000000000000000000000000000008152600401620002f79062000c95565b60405180910390fd5b50505050565b600160009054906101000a900473ffffffffffffffffffffffffffffffffffffffff1681565b6060600260003373ffffffffffffffffffffffffffffffffffffffff1673ffffffffffffffffffffffffffffffffffffffff168152602001908152602001600020805480602002602001604051908101604052809291908181526020018280548015620003ef57602002820191906000526020600020905b8160009054906101000a900473ffffffffffffffffffffffffffffffffffffffff1673ffffffffffffffffffffffffffffffffffffffff1681526020019060010190808311620003a4575b5050505050905090565b600081336040516200040b9062000546565b6200041892919062000d03565b604051809103906000f08015801562000435573d6000803e3d6000fd5b509050600260003373ffffffffffffffffffffffffffffffffffffffff1673ffffffffffffffffffffffffffffffffffffffff168152602001908152602001600020819080600181540180825580915050600190039060005260206000200160009091909190916101000a81548173ffffffffffffffffffffffffffffffffffffffff021916908373ffffffffffffffffffffffffffffffffffffffff1602179055503373ffffffffffffffffffffffffffffffffffffffff168173ffffffffffffffffffffffffffffffffffffffff167fbb858db47e95f5d7cf47c58b1841c9cc6f65d4e777ac8388784a54b0603a37b384426040516200053992919062000d48565b60405180910390a3919050565b6150d78062000d7d83390190565b6000604051905090565b600080fd5b600080fd5b6000819050919050565b6200057d8162000568565b81146200058957600080fd5b50565b6000813590506200059d8162000572565b92915050565b600060208284031215620005bc57620005bb6200055e565b5b6000620005cc848285016200058c565b91505092915050565b600073ffffffffffffffffffffffffffffffffffffffff82169050919050565b60006200060282620005d5565b9050919050565b6200061481620005f5565b82525050565b600060208201905062000631600083018462000609565b92915050565b600081519050919050565b600082825260208201905092915050565b6000819050602082019050919050565b6200066e81620005f5565b82525050565b600062000682838362000663565b60208301905092915050565b6000602082019050919050565b6000620006a88262000637565b620006b4818562000642565b9350620006c18362000653565b8060005b83811015620006f8578151620006dc888262000674565b9750620006e9836200068e565b925050600181019050620006c5565b5085935050505092915050565b600060208201905081810360008301526200072181846200069b565b905092915050565b600080fd5b600080fd5b6000601f19601f8301169050919050565b7f4e487b7100000000000000000000000000000000000000000000000000000000600052604160045260246000fd5b6200077e8262000733565b810181811067ffffffffffffffff82111715620007a0576200079f62000744565b5b80604052505050565b6000620007b562000554565b9050620007c3828262000773565b919050565b600067ffffffffffffffff821115620007e657620007e562000744565b5b620007f18262000733565b9050602081019050919050565b82818337600083830152505050565b6000620008246200081e84620007c8565b620007a9565b9050828152602081018484840111156200084357620008426200072e565b5b62000850848285620007fe565b509392505050565b600082601f83011262000870576200086f62000729565b5b8135620008828482602086016200080d565b91505092915050565b600060208284031215620008a457620008a36200055e565b5b600082013567ffffffffffffffff811115620008c557620008c462000563565b5b620008d38482850162000858565b91505092915050565b600082825260208201905092915050565b7f4f6e6c792054696d656c6f636b2063616e20616363657373207468697320726560008201527f736f757263650000000000000000000000000000000000000000000000000000602082015250565b60006200094b602683620008dc565b91506200095882620008ed565b604082019050919050565b600060208201905081810360008301526200097e816200093c565b9050919050565b620009908162000568565b82525050565b6000602082019050620009ad600083018462000985565b92915050565b600081519050620009c48162000572565b92915050565b60005b83811015620009ea578082015181840152602081019050620009cd565b83811115620009fa576000848401525b50505050565b600062000a1762000a1184620007c8565b620007a9565b90508281526020810184848401111562000a365762000a356200072e565b5b62000a43848285620009ca565b509392505050565b600082601f83011262000a635762000a6262000729565b5b815162000a7584826020860162000a00565b91505092915050565b62000a8981620005f5565b811462000a9557600080fd5b50565b60008151905062000aa98162000a7e565b92915050565b6000819050919050565b62000ac48162000aaf565b811462000ad057600080fd5b50565b60008151905062000ae48162000ab9565b92915050565b60008115159050919050565b62000b018162000aea565b811462000b0d57600080fd5b50565b60008151905062000b218162000af6565b92915050565b600080600080600080600060e0888a03121562000b495762000b486200055e565b5b600062000b598a828b01620009b3565b975050602088015167ffffffffffffffff81111562000b7d5762000b7c62000563565b5b62000b8b8a828b0162000a4b565b965050604062000b9e8a828b0162000a98565b955050606062000bb18a828b0162000a98565b945050608062000bc48a828b0162000ad3565b93505060a062000bd78a828b0162000ad3565b92505060c062000bea8a828b0162000b10565b91505092959891949750929550565b600081905092915050565b50565b600062000c1660008362000bf9565b915062000c238262000c04565b600082019050919050565b600062000c3b8262000c07565b9150819050919050565b7f4661696c656420746f2073656e64204574686572000000000000000000000000600082015250565b600062000c7d601483620008dc565b915062000c8a8262000c45565b602082019050919050565b6000602082019050818103600083015262000cb08162000c6e565b9050919050565b600081519050919050565b600062000ccf8262000cb7565b62000cdb8185620008dc565b935062000ced818560208601620009ca565b62000cf88162000733565b840191505092915050565b6000604082019050818103600083015262000d1f818562000cc2565b905062000d30602083018462000609565b9392505050565b62000d428162000aaf565b82525050565b6000604082019050818103600083015262000d64818562000cc2565b905062000d75602083018462000d37565b939250505056fe60806040523480156200001157600080fd5b50604051620050d7380380620050d7833981810160405281019062000037919062000293565b816001908162000048919062000544565b50806000806101000a81548173ffffffffffffffffffffffffffffffffffffffff021916908373ffffffffffffffffffffffffffffffffffffffff16021790555050506200062b565b6000604051905090565b600080fd5b600080fd5b600080fd5b600080fd5b6000601f19601f8301169050919050565b7f4e487b7100000000000000000000000000000000000000000000000000000000600052604160045260246000fd5b620000fa82620000af565b810181811067ffffffffffffffff821117156200011c576200011b620000c0565b5b80604052505050565b60006200013162000091565b90506200013f8282620000ef565b919050565b600067ffffffffffffffff821115620001625762000161620000c0565b5b6200016d82620000af565b9050602081019050919050565b60005b838110156200019a5780820151818401526020810190506200017d565b83811115620001aa576000848401525b50505050565b6000620001c7620001c18462000144565b62000125565b905082815260208101848484011115620001e657620001e5620000aa565b5b620001f38482856200017a565b509392505050565b600082601f830112620002135762000212620000a5565b5b815162000225848260208601620001b0565b91505092915050565b600073ffffffffffffffffffffffffffffffffffffffff82169050919050565b60006200025b826200022e565b9050919050565b6200026d816200024e565b81146200027957600080fd5b50565b6000815190506200028d8162000262565b92915050565b60008060408385031215620002ad57620002ac6200009b565b5b600083015167ffffffffffffffff811115620002ce57620002cd620000a0565b5b620002dc85828601620001fb565b9250506020620002ef858286016200027c565b9150509250929050565b600081519050919050565b7f4e487b7100000000000000000000000000000000000000000000000000000000600052602260045260246000fd5b600060028204905060018216806200034c57607f821691505b60208210810362000362576200036162000304565b5b50919050565b60008190508160005260206000209050919050565b60006020601f8301049050919050565b600082821b905092915050565b600060088302620003cc7fffffffffffffffffffffffffffffffffffffffffffffffffffffffffffffffff826200038d565b620003d886836200038d565b95508019841693508086168417925050509392505050565b6000819050919050565b6000819050919050565b6000620004256200041f6200041984620003f0565b620003fa565b620003f0565b9050919050565b6000819050919050565b620004418362000404565b6200045962000450826200042c565b8484546200039a565b825550505050565b600090565b6200047062000461565b6200047d81848462000436565b505050565b5b81811015620004a5576200049960008262000466565b60018101905062000483565b5050565b601f821115620004f457620004be8162000368565b620004c9846200037d565b81016020851015620004d9578190505b620004f1620004e8856200037d565b83018262000482565b50505b505050565b600082821c905092915050565b60006200051960001984600802620004f9565b1980831691505092915050565b600062000534838362000506565b9150826002028217905092915050565b6200054f82620002f9565b67ffffffffffffffff8111156200056b576200056a620000c0565b5b62000577825462000333565b62000584828285620004a9565b600060209050601f831160018114620005bc5760008415620005a7578287015190505b620005b3858262000526565b86555062000623565b601f198416620005cc8662000368565b60005b82811015620005f657848901518255600182019150602085019450602081019050620005cf565b8683101562000616578489015162000612601f89168262000506565b8355505b6001600288020188555050505b505050505050565b614a9c806200063b6000396000f3fe6080604052600436106101185760003560e01c80639f81aed7116100a0578063d283238b11610064578063d283238b146103b7578063d6d68177146103f5578063e62e7f0414610438578063fb580b761461047b578063ff1529e7146104975761011f565b80639f81aed7146102d2578063baf61ac3146102fd578063bd66528a1461033a578063c1a287e214610363578063c4d252f51461038e5761011f565b80636b149d87116100e75780636b149d87146101f85780637284e4161461022357806385d3ca091461024e5780638da5cb5b1461028b5780639cac9ee6146102b65761011f565b80630dc051f814610124578063228250c9146101615780634125ff90146101a45780634f4ac9a4146101cf5761011f565b3661011f57005b600080fd5b34801561013057600080fd5b5061014b60048036038101906101469190613116565b6104c7565b604051610158919061315e565b60405180910390f35b34801561016d57600080fd5b5061018860048036038101906101839190613116565b610541565b60405161019b979695949392919061327b565b60405180910390f35b3480156101b057600080fd5b506101b9610658565b6040516101c691906132f1565b60405180910390f35b3480156101db57600080fd5b506101f660048036038101906101f1919061339d565b61065f565b005b34801561020457600080fd5b5061020d610adb565b60405161021a91906135f5565b60405180910390f35b34801561022f57600080fd5b50610238610cee565b6040516102459190613617565b60405180910390f35b34801561025a57600080fd5b506102756004803603810190610270919061339d565b610d7c565b6040516102829190613639565b60405180910390f35b34801561029757600080fd5b506102a0610db5565b6040516102ad9190613654565b60405180910390f35b6102d060048036038101906102cb91906137cb565b610dd9565b005b3480156102de57600080fd5b506102e76112b0565b6040516102f491906132f1565b60405180910390f35b34801561030957600080fd5b50610324600480360381019061031f919061384e565b6112b5565b6040516103319190613639565b60405180910390f35b34801561034657600080fd5b50610361600480360381019061035c9190613116565b6112f1565b005b34801561036f57600080fd5b50610378611636565b60405161038591906132f1565b60405180910390f35b34801561039a57600080fd5b506103b560048036038101906103b09190613116565b61163d565b005b3480156103c357600080fd5b506103de60048036038101906103d99190613116565b611a68565b6040516103ec929190613981565b60405180910390f35b34801561040157600080fd5b5061041c600480360381019061041791906139b1565b611d34565b60405161042f979695949392919061327b565b60405180910390f35b34801561044457600080fd5b5061045f600480360381019061045a9190613116565b611e68565b604051610472979695949392919061327b565b60405180910390f35b610495600480360381019061049091906139f1565b611f7f565b005b6104b160048036038101906104ac919061339d565b61264f565b6040516104be9190613add565b60405180910390f35b60008073ffffffffffffffffffffffffffffffffffffffff166004600084815260200190815260200160002060030160009054906101000a900473ffffffffffffffffffffffffffffffffffffffff1673ffffffffffffffffffffffffffffffffffffffff161461053b576001905061053c565b5b919050565b600460205280600052604060002060009150905080600001549080600101805461056a90613b2e565b80601f016020809104026020016040519081016040528092919081815260200182805461059690613b2e565b80156105e35780601f106105b8576101008083540402835291602001916105e3565b820191906000526020600020905b8154815290600101906020018083116105c657829003601f168201915b5050505050908060020160009054906101000a900473ffffffffffffffffffffffffffffffffffffffff16908060030160009054906101000a900473ffffffffffffffffffffffffffffffffffffffff16908060040154908060050154908060060160009054906101000a900460ff16905087565b6202a30081565b3373ffffffffffffffffffffffffffffffffffffffff1660008054906101000a900473ffffffffffffffffffffffffffffffffffffffff1673ffffffffffffffffffffffffffffffffffffffff16146106ed576040517f08c379a00000000000000000000000000000000000000000000000000000000081526004016106e490613bd1565b60405180910390fd5b6000600360008581526020019081526020016000206040518060e00160405290816000820154815260200160018201805461072790613b2e565b80601f016020809104026020016040519081016040528092919081815260200182805461075390613b2e565b80156107a05780601f10610775576101008083540402835291602001916107a0565b820191906000526020600020905b81548152906001019060200180831161078357829003601f168201915b505050505081526020016002820160009054906101000a900473ffffffffffffffffffffffffffffffffffffffff1673ffffffffffffffffffffffffffffffffffffffff1673ffffffffffffffffffffffffffffffffffffffff1681526020016003820160009054906101000a900473ffffffffffffffffffffffffffffffffffffffff1673ffffffffffffffffffffffffffffffffffffffff1673ffffffffffffffffffffffffffffffffffffffff16815260200160048201548152602001600582015481526020016006820160009054906101000a900460ff1615151515815250509050600061089486868686610d7c565b9050600015156108a3826104c7565b1515146108e5576040517f08c379a00000000000000000000000000000000000000000000000000000000081526004016108dc90613c3d565b60405180910390fd5b600a426108f29190613c8c565b8260a0015111801561091557506202a3004261090e9190613c8c565b8260a00151105b610954576040517f08c379a000000000000000000000000000000000000000000000000000000000815260040161094b90613d2e565b60405180910390fd5b81600460008381526020019081526020016000206000820151816000015560208201518160010190816109879190613efa565b5060408201518160020160006101000a81548173ffffffffffffffffffffffffffffffffffffffff021916908373ffffffffffffffffffffffffffffffffffffffff16021790555060608201518160030160006101000a81548173ffffffffffffffffffffffffffffffffffffffff021916908373ffffffffffffffffffffffffffffffffffffffff1602179055506080820151816004015560a0820151816005015560c08201518160060160006101000a81548160ff021916908315150217905550905050816060015173ffffffffffffffffffffffffffffffffffffffff168673ffffffffffffffffffffffffffffffffffffffff16827f4762453ff07afa9b0dc3d8842a3bb2c3bada1fec4956fc404dbcc3c7ee45457e856080015188888860a00151604051610abd9493929190613ff9565b60405180910390a4610acd613001565b915060009050505050505050565b6060600260003373ffffffffffffffffffffffffffffffffffffffff1673ffffffffffffffffffffffffffffffffffffffff168152602001908152602001600020805480602002602001604051908101604052809291908181526020016000905b82821015610ce557838290600052602060002090600702016040518060e001604052908160008201548152602001600182018054610b7990613b2e565b80601f0160208091040260200160405190810160405280929190818152602001828054610ba590613b2e565b8015610bf25780601f10610bc757610100808354040283529160200191610bf2565b820191906000526020600020905b815481529060010190602001808311610bd557829003601f168201915b505050505081526020016002820160009054906101000a900473ffffffffffffffffffffffffffffffffffffffff1673ffffffffffffffffffffffffffffffffffffffff1673ffffffffffffffffffffffffffffffffffffffff1681526020016003820160009054906101000a900473ffffffffffffffffffffffffffffffffffffffff1673ffffffffffffffffffffffffffffffffffffffff1673ffffffffffffffffffffffffffffffffffffffff16815260200160048201548152602001600582015481526020016006820160009054906101000a900460ff16151515158152505081526020019060010190610b3c565b50505050905090565b60018054610cfb90613b2e565b80601f0160208091040260200160405190810160405280929190818152602001828054610d2790613b2e565b8015610d745780601f10610d4957610100808354040283529160200191610d74565b820191906000526020600020905b815481529060010190602001808311610d5757829003601f168201915b505050505081565b600084848484604051602001610d959493929190614039565b604051602081830303815290604052805190602001209050949350505050565b60008054906101000a900473ffffffffffffffffffffffffffffffffffffffff1681565b80610de381612bc6565b610e22576040517f08c379a0000000000000000000000000000000000000000000000000000000008152600401610e19906140eb565b60405180910390fd5b823373ffffffffffffffffffffffffffffffffffffffff163111610e7b576040517f08c379a0000000000000000000000000000000000000000000000000000000008152600401610e7290614157565b60405180910390fd5b60003073ffffffffffffffffffffffffffffffffffffffff1684604051610ea1906141a8565b60006040518083038185875af1925050503d8060008114610ede576040519150601f19603f3d011682016040523d82523d6000602084013e610ee3565b606091505b5050905080610f27576040517f08c379a0000000000000000000000000000000000000000000000000000000008152600401610f1e90614209565b60405180910390fd5b6000610f3687338888886112b5565b9050600260003373ffffffffffffffffffffffffffffffffffffffff1673ffffffffffffffffffffffffffffffffffffffff1681526020019081526020016000206040518060e001604052808381526020018981526020013373ffffffffffffffffffffffffffffffffffffffff1681526020018873ffffffffffffffffffffffffffffffffffffffff1681526020018781526020018681526020016000151581525090806001815401808255809150506001900390600052602060002090600702016000909190919091506000820151816000015560208201518160010190816110219190613efa565b5060408201518160020160006101000a81548173ffffffffffffffffffffffffffffffffffffffff021916908373ffffffffffffffffffffffffffffffffffffffff16021790555060608201518160030160006101000a81548173ffffffffffffffffffffffffffffffffffffffff021916908373ffffffffffffffffffffffffffffffffffffffff1602179055506080820151816004015560a0820151816005015560c08201518160060160006101000a81548160ff02191690831515021790555050506040518060e001604052808281526020018881526020013373ffffffffffffffffffffffffffffffffffffffff1681526020018773ffffffffffffffffffffffffffffffffffffffff168152602001868152602001858152602001600015158152506003600083815260200190815260200160002060008201518160000155602082015181600101908161117a9190613efa565b5060408201518160020160006101000a81548173ffffffffffffffffffffffffffffffffffffffff021916908373ffffffffffffffffffffffffffffffffffffffff16021790555060608201518160030160006101000a81548173ffffffffffffffffffffffffffffffffffffffff021916908373ffffffffffffffffffffffffffffffffffffffff1602179055506080820151816004015560a0820151816005015560c08201518160060160006101000a81548160ff0219169083151502179055509050508573ffffffffffffffffffffffffffffffffffffffff163373ffffffffffffffffffffffffffffffffffffffff167fb817a4ec9e877823f62911aaf416897831bc662f4ea697015c1a6d81ff3b70ab878760405161129f929190614229565b60405180910390a350505050505050565b600a81565b600085858585856040516020016112d0959493929190614252565b60405160208183030381529060405280519060200120905095945050505050565b3373ffffffffffffffffffffffffffffffffffffffff1660008054906101000a900473ffffffffffffffffffffffffffffffffffffffff1673ffffffffffffffffffffffffffffffffffffffff161461137f576040517f08c379a000000000000000000000000000000000000000000000000000000000815260040161137690613bd1565b60405180910390fd5b60008061138b83611a68565b91509150600015158260c0015115151480156113ce5750600015156003600085815260200190815260200160002060060160009054906101000a900460ff161515145b61140d576040517f08c379a00000000000000000000000000000000000000000000000000000000081526004016114049061431e565b60405180910390fd5b6040518060e0016040528084815260200183602001518152602001836040015173ffffffffffffffffffffffffffffffffffffffff168152602001836060015173ffffffffffffffffffffffffffffffffffffffff168152602001836080015181526020018360a0015181526020016001151581525060026000846040015173ffffffffffffffffffffffffffffffffffffffff1673ffffffffffffffffffffffffffffffffffffffff16815260200190815260200160002082815481106114d8576114d761433e565b5b90600052602060002090600702016000820151816000015560208201518160010190816115059190613efa565b5060408201518160020160006101000a81548173ffffffffffffffffffffffffffffffffffffffff021916908373ffffffffffffffffffffffffffffffffffffffff16021790555060608201518160030160006101000a81548173ffffffffffffffffffffffffffffffffffffffff021916908373ffffffffffffffffffffffffffffffffffffffff1602179055506080820151816004015560a0820151816005015560c08201518160060160006101000a81548160ff02191690831515021790555090505060016003600085815260200190815260200160002060060160006101000a81548160ff021916908315150217905550611602613001565b9150827fe452cdb9bed412d2a2730f7b94259ee6508bae240cff3cf9fda5ef24c034f02260405160405180910390a2505050565b6206978081565b3373ffffffffffffffffffffffffffffffffffffffff1660008054906101000a900473ffffffffffffffffffffffffffffffffffffffff1673ffffffffffffffffffffffffffffffffffffffff16146116cb576040517f08c379a00000000000000000000000000000000000000000000000000000000081526004016116c290613bd1565b60405180910390fd5b600115156116d8826104c7565b15151461171a576040517f08c379a0000000000000000000000000000000000000000000000000000000008152600401611711906143b9565b60405180910390fd5b6000600460008381526020019081526020016000206040518060e00160405290816000820154815260200160018201805461175490613b2e565b80601f016020809104026020016040519081016040528092919081815260200182805461178090613b2e565b80156117cd5780601f106117a2576101008083540402835291602001916117cd565b820191906000526020600020905b8154815290600101906020018083116117b057829003601f168201915b505050505081526020016002820160009054906101000a900473ffffffffffffffffffffffffffffffffffffffff1673ffffffffffffffffffffffffffffffffffffffff1673ffffffffffffffffffffffffffffffffffffffff1681526020016003820160009054906101000a900473ffffffffffffffffffffffffffffffffffffffff1673ffffffffffffffffffffffffffffffffffffffff1673ffffffffffffffffffffffffffffffffffffffff16815260200160048201548152602001600582015481526020016006820160009054906101000a900460ff161515151581525050905060006118c28260000151611a68565b9150506118d3826040015182612bd2565b6000826040015173ffffffffffffffffffffffffffffffffffffffff168360800151604051611901906141a8565b60006040518083038185875af1925050503d806000811461193e576040519150601f19603f3d011682016040523d82523d6000602084013e611943565b606091505b5050905080611987576040517f08c379a000000000000000000000000000000000000000000000000000000000815260040161197e90614425565b60405180910390fd5b600460008581526020019081526020016000206000808201600090556001820160006119b3919061306f565b6002820160006101000a81549073ffffffffffffffffffffffffffffffffffffffff02191690556003820160006101000a81549073ffffffffffffffffffffffffffffffffffffffff0219169055600482016000905560058201600090556006820160006101000a81549060ff02191690555050611a2f613001565b925060009150837f2c7aceded1437f250f60bc94f49680c49933e6c720bca1c2a6bf91f64d4de16260405160405180910390a250505050565b611a70613001565b600080600090505b600260003373ffffffffffffffffffffffffffffffffffffffff1673ffffffffffffffffffffffffffffffffffffffff16815260200190815260200160002080549050811015611d2d5783600260003373ffffffffffffffffffffffffffffffffffffffff1673ffffffffffffffffffffffffffffffffffffffff1681526020019081526020016000208281548110611b1457611b1361433e565b5b90600052602060002090600702016000015403611d1a57600260003373ffffffffffffffffffffffffffffffffffffffff1673ffffffffffffffffffffffffffffffffffffffff1681526020019081526020016000208181548110611b7c57611b7b61433e565b5b906000526020600020906007020181816040518060e001604052908160008201548152602001600182018054611bb190613b2e565b80601f0160208091040260200160405190810160405280929190818152602001828054611bdd90613b2e565b8015611c2a5780601f10611bff57610100808354040283529160200191611c2a565b820191906000526020600020905b815481529060010190602001808311611c0d57829003601f168201915b505050505081526020016002820160009054906101000a900473ffffffffffffffffffffffffffffffffffffffff1673ffffffffffffffffffffffffffffffffffffffff1673ffffffffffffffffffffffffffffffffffffffff1681526020016003820160009054906101000a900473ffffffffffffffffffffffffffffffffffffffff1673ffffffffffffffffffffffffffffffffffffffff1673ffffffffffffffffffffffffffffffffffffffff16815260200160048201548152602001600582015481526020016006820160009054906101000a900460ff16151515158152505091509250925050611d2f565b8080611d2590614445565b915050611a78565b505b915091565b60026020528160005260406000208181548110611d5057600080fd5b906000526020600020906007020160009150915050806000015490806001018054611d7a90613b2e565b80601f0160208091040260200160405190810160405280929190818152602001828054611da690613b2e565b8015611df35780601f10611dc857610100808354040283529160200191611df3565b820191906000526020600020905b815481529060010190602001808311611dd657829003601f168201915b5050505050908060020160009054906101000a900473ffffffffffffffffffffffffffffffffffffffff16908060030160009054906101000a900473ffffffffffffffffffffffffffffffffffffffff16908060040154908060050154908060060160009054906101000a900460ff16905087565b6003602052806000526040600020600091509050806000015490806001018054611e9190613b2e565b80601f0160208091040260200160405190810160405280929190818152602001828054611ebd90613b2e565b8015611f0a5780601f10611edf57610100808354040283529160200191611f0a565b820191906000526020600020905b815481529060010190602001808311611eed57829003601f168201915b5050505050908060020160009054906101000a900473ffffffffffffffffffffffffffffffffffffffff16908060030160009054906101000a900473ffffffffffffffffffffffffffffffffffffffff16908060040154908060050154908060060160009054906101000a900460ff16905087565b80611f8981612bc6565b611fc8576040517f08c379a0000000000000000000000000000000000000000000000000000000008152600401611fbf906140eb565b60405180910390fd5b600080611fd488611a68565b915091506000611fe788338989896112b5565b90506000861161202c576040517f08c379a0000000000000000000000000000000000000000000000000000000008152600401612023906144d9565b60405180910390fd5b6000836080015111612073576040517f08c379a000000000000000000000000000000000000000000000000000000000815260040161206a90614545565b60405180910390fd5b82608001518611156121a85782608001518661208f9190614565565b3373ffffffffffffffffffffffffffffffffffffffff1631116120e7576040517f08c379a00000000000000000000000000000000000000000000000000000000081526004016120de906145e5565b60405180910390fd5b60003073ffffffffffffffffffffffffffffffffffffffff168460800151886121109190614565565b60405161211c906141a8565b60006040518083038185875af1925050503d8060008114612159576040519150601f19603f3d011682016040523d82523d6000602084013e61215e565b606091505b50509050806121a2576040517f08c379a000000000000000000000000000000000000000000000000000000000815260040161219990614209565b60405180910390fd5b506121cf565b82608001518610156121ce576121cd338785608001516121c89190614565565b612f50565b5b5b6040518060e001604052806121e78a338b8b8b6112b5565b81526020018981526020013373ffffffffffffffffffffffffffffffffffffffff1681526020018873ffffffffffffffffffffffffffffffffffffffff16815260200187815260200186815260200160001515815250600260003373ffffffffffffffffffffffffffffffffffffffff1673ffffffffffffffffffffffffffffffffffffffff168152602001908152602001600020838154811061228e5761228d61433e565b5b90600052602060002090600702016000820151816000015560208201518160010190816122bb9190613efa565b5060408201518160020160006101000a81548173ffffffffffffffffffffffffffffffffffffffff021916908373ffffffffffffffffffffffffffffffffffffffff16021790555060608201518160030160006101000a81548173ffffffffffffffffffffffffffffffffffffffff021916908373ffffffffffffffffffffffffffffffffffffffff1602179055506080820151816004015560a0820151816005015560c08201518160060160006101000a81548160ff0219169083151502179055509050506000600360008560000151815260200190815260200160002060040154116123de576040517f08c379a00000000000000000000000000000000000000000000000000000000081526004016123d590614677565b60405180910390fd5b600360008460000151815260200190815260200160002060008082016000905560018201600061240e919061306f565b6002820160006101000a81549073ffffffffffffffffffffffffffffffffffffffff02191690556003820160006101000a81549073ffffffffffffffffffffffffffffffffffffffff0219169055600482016000905560058201600090556006820160006101000a81549060ff021916905550506040518060e001604052808281526020018981526020013373ffffffffffffffffffffffffffffffffffffffff1681526020018873ffffffffffffffffffffffffffffffffffffffff16815260200187815260200186815260200160001515815250600360008381526020019081526020016000206000820151816000015560208201518160010190816125169190613efa565b5060408201518160020160006101000a81548173ffffffffffffffffffffffffffffffffffffffff021916908373ffffffffffffffffffffffffffffffffffffffff16021790555060608201518160030160006101000a81548173ffffffffffffffffffffffffffffffffffffffff021916908373ffffffffffffffffffffffffffffffffffffffff1602179055506080820151816004015560a0820151816005015560c08201518160060160006101000a81548160ff0219169083151502179055509050508673ffffffffffffffffffffffffffffffffffffffff163373ffffffffffffffffffffffffffffffffffffffff167e80500dd3135b317a9964a886fc89087f9464cfbb755449e146ace57a1e0cf48a898960405161263c93929190614697565b60405180910390a3505050505050505050565b60603373ffffffffffffffffffffffffffffffffffffffff1660008054906101000a900473ffffffffffffffffffffffffffffffffffffffff1673ffffffffffffffffffffffffffffffffffffffff16146126df576040517f08c379a00000000000000000000000000000000000000000000000000000000081526004016126d690613bd1565b60405180910390fd5b60006126ed86868686610d7c565b90506000600460008381526020019081526020016000206040518060e00160405290816000820154815260200160018201805461272990613b2e565b80601f016020809104026020016040519081016040528092919081815260200182805461275590613b2e565b80156127a25780601f10612777576101008083540402835291602001916127a2565b820191906000526020600020905b81548152906001019060200180831161278557829003601f168201915b505050505081526020016002820160009054906101000a900473ffffffffffffffffffffffffffffffffffffffff1673ffffffffffffffffffffffffffffffffffffffff1673ffffffffffffffffffffffffffffffffffffffff1681526020016003820160009054906101000a900473ffffffffffffffffffffffffffffffffffffffff1673ffffffffffffffffffffffffffffffffffffffff1673ffffffffffffffffffffffffffffffffffffffff16815260200160048201548152602001600582015481526020016006820160009054906101000a900460ff161515151581525050905060006004600084815260200190815260200160002060040154116128e1576040517f08c379a00000000000000000000000000000000000000000000000000000000081526004016128d8906143b9565b60405180910390fd5b42600460008481526020019081526020016000206005015410612939576040517f08c379a000000000000000000000000000000000000000000000000000000000815260040161293090614721565b60405180910390fd5b62069780600460008481526020019081526020016000206005015461295e9190613c8c565b421061299f576040517f08c379a00000000000000000000000000000000000000000000000000000000081526004016129969061478d565b60405180910390fd5b606085856040516129b19291906147d2565b6040518091039020836040516020016129cb929190614859565b6040516020818303038152906040529050600080836060015173ffffffffffffffffffffffffffffffffffffffff16846080015184604051612a0d91906148b6565b60006040518083038185875af1925050503d8060008114612a4a576040519150601f19603f3d011682016040523d82523d6000602084013e612a4f565b606091505b509150915081612a94576040517f08c379a0000000000000000000000000000000000000000000000000000000008152600401612a8b90614919565b60405180910390fd5b836060015173ffffffffffffffffffffffffffffffffffffffff168a73ffffffffffffffffffffffffffffffffffffffff16867fa7d0a908e9a681226c49f8746dd888d9324c460437a92654e38a466d23f217a887608001518860a00151604051612b00929190614229565b60405180910390a460046000868152602001908152602001600020600080820160009055600182016000612b34919061306f565b6002820160006101000a81549073ffffffffffffffffffffffffffffffffffffffff02191690556003820160006101000a81549073ffffffffffffffffffffffffffffffffffffffff0219169055600482016000905560058201600090556006820160006101000a81549060ff02191690555050612bb0613001565b9350606092508095505050505050949350505050565b60008142109050919050565b600260008373ffffffffffffffffffffffffffffffffffffffff1673ffffffffffffffffffffffffffffffffffffffff16815260200190815260200160002080549050811015612f4c57600260008373ffffffffffffffffffffffffffffffffffffffff1673ffffffffffffffffffffffffffffffffffffffff1681526020019081526020016000206001600260008573ffffffffffffffffffffffffffffffffffffffff1673ffffffffffffffffffffffffffffffffffffffff16815260200190815260200160002080549050612caa9190614565565b81548110612cbb57612cba61433e565b5b9060005260206000209060070201600260008473ffffffffffffffffffffffffffffffffffffffff1673ffffffffffffffffffffffffffffffffffffffff1681526020019081526020016000208281548110612d1a57612d1961433e565b5b90600052602060002090600702016000820154816000015560018201816001019081612d46919061494f565b506002820160009054906101000a900473ffffffffffffffffffffffffffffffffffffffff168160020160006101000a81548173ffffffffffffffffffffffffffffffffffffffff021916908373ffffffffffffffffffffffffffffffffffffffff1602179055506003820160009054906101000a900473ffffffffffffffffffffffffffffffffffffffff168160030160006101000a81548173ffffffffffffffffffffffffffffffffffffffff021916908373ffffffffffffffffffffffffffffffffffffffff16021790555060048201548160040155600582015481600501556006820160009054906101000a900460ff168160060160006101000a81548160ff021916908315150217905550905050600260008373ffffffffffffffffffffffffffffffffffffffff1673ffffffffffffffffffffffffffffffffffffffff168152602001908152602001600020805480612ea857612ea7614a37565b5b6001900381819060005260206000209060070201600080820160009055600182016000612ed5919061306f565b6002820160006101000a81549073ffffffffffffffffffffffffffffffffffffffff02191690556003820160006101000a81549073ffffffffffffffffffffffffffffffffffffffff0219169055600482016000905560058201600090556006820160006101000a81549060ff0219169055505090555b5050565b60008273ffffffffffffffffffffffffffffffffffffffff1682604051612f76906141a8565b60006040518083038185875af1925050503d8060008114612fb3576040519150601f19603f3d011682016040523d82523d6000602084013e612fb8565b606091505b5050905080612ffc576040517f08c379a0000000000000000000000000000000000000000000000000000000008152600401612ff390614209565b60405180910390fd5b505050565b6040518060e001604052806000801916815260200160608152602001600073ffffffffffffffffffffffffffffffffffffffff168152602001600073ffffffffffffffffffffffffffffffffffffffff16815260200160008152602001600081526020016000151581525090565b50805461307b90613b2e565b6000825580601f1061308d57506130ac565b601f0160209004906000526020600020908101906130ab91906130af565b5b50565b5b808211156130c85760008160009055506001016130b0565b5090565b6000604051905090565b600080fd5b600080fd5b6000819050919050565b6130f3816130e0565b81146130fe57600080fd5b50565b600081359050613110816130ea565b92915050565b60006020828403121561312c5761312b6130d6565b5b600061313a84828501613101565b91505092915050565b60008115159050919050565b61315881613143565b82525050565b6000602082019050613173600083018461314f565b92915050565b613182816130e0565b82525050565b600081519050919050565b600082825260208201905092915050565b60005b838110156131c25780820151818401526020810190506131a7565b838111156131d1576000848401525b50505050565b6000601f19601f8301169050919050565b60006131f382613188565b6131fd8185613193565b935061320d8185602086016131a4565b613216816131d7565b840191505092915050565b600073ffffffffffffffffffffffffffffffffffffffff82169050919050565b600061324c82613221565b9050919050565b61325c81613241565b82525050565b6000819050919050565b61327581613262565b82525050565b600060e082019050613290600083018a613179565b81810360208301526132a281896131e8565b90506132b16040830188613253565b6132be6060830187613253565b6132cb608083018661326c565b6132d860a083018561326c565b6132e560c083018461314f565b98975050505050505050565b6000602082019050613306600083018461326c565b92915050565b61331581613241565b811461332057600080fd5b50565b6000813590506133328161330c565b92915050565b600080fd5b600080fd5b600080fd5b60008083601f84011261335d5761335c613338565b5b8235905067ffffffffffffffff81111561337a5761337961333d565b5b60208301915083600182028301111561339657613395613342565b5b9250929050565b600080600080606085870312156133b7576133b66130d6565b5b60006133c587828801613323565b94505060206133d687828801613101565b935050604085013567ffffffffffffffff8111156133f7576133f66130db565b5b61340387828801613347565b925092505092959194509250565b600081519050919050565b600082825260208201905092915050565b6000819050602082019050919050565b613446816130e0565b82525050565b600082825260208201905092915050565b600061346882613188565b613472818561344c565b93506134828185602086016131a4565b61348b816131d7565b840191505092915050565b61349f81613241565b82525050565b6134ae81613262565b82525050565b6134bd81613143565b82525050565b600060e0830160008301516134db600086018261343d565b50602083015184820360208601526134f3828261345d565b91505060408301516135086040860182613496565b50606083015161351b6060860182613496565b50608083015161352e60808601826134a5565b5060a083015161354160a08601826134a5565b5060c083015161355460c08601826134b4565b508091505092915050565b600061356b83836134c3565b905092915050565b6000602082019050919050565b600061358b82613411565b613595818561341c565b9350836020820285016135a78561342d565b8060005b858110156135e357848403895281516135c4858261355f565b94506135cf83613573565b925060208a019950506001810190506135ab565b50829750879550505050505092915050565b6000602082019050818103600083015261360f8184613580565b905092915050565b6000602082019050818103600083015261363181846131e8565b905092915050565b600060208201905061364e6000830184613179565b92915050565b60006020820190506136696000830184613253565b92915050565b600080fd5b7f4e487b7100000000000000000000000000000000000000000000000000000000600052604160045260246000fd5b6136ac826131d7565b810181811067ffffffffffffffff821117156136cb576136ca613674565b5b80604052505050565b60006136de6130cc565b90506136ea82826136a3565b919050565b600067ffffffffffffffff82111561370a57613709613674565b5b613713826131d7565b9050602081019050919050565b82818337600083830152505050565b600061374261373d846136ef565b6136d4565b90508281526020810184848401111561375e5761375d61366f565b5b613769848285613720565b509392505050565b600082601f83011261378657613785613338565b5b813561379684826020860161372f565b91505092915050565b6137a881613262565b81146137b357600080fd5b50565b6000813590506137c58161379f565b92915050565b600080600080608085870312156137e5576137e46130d6565b5b600085013567ffffffffffffffff811115613803576138026130db565b5b61380f87828801613771565b945050602061382087828801613323565b9350506040613831878288016137b6565b9250506060613842878288016137b6565b91505092959194509250565b600080600080600060a0868803121561386a576138696130d6565b5b600086013567ffffffffffffffff811115613888576138876130db565b5b61389488828901613771565b95505060206138a588828901613323565b94505060406138b688828901613323565b93505060606138c7888289016137b6565b92505060806138d8888289016137b6565b9150509295509295909350565b600060e0830160008301516138fd600086018261343d565b5060208301518482036020860152613915828261345d565b915050604083015161392a6040860182613496565b50606083015161393d6060860182613496565b50608083015161395060808601826134a5565b5060a083015161396360a08601826134a5565b5060c083015161397660c08601826134b4565b508091505092915050565b6000604082019050818103600083015261399b81856138e5565b90506139aa602083018461326c565b9392505050565b600080604083850312156139c8576139c76130d6565b5b60006139d685828601613323565b92505060206139e7858286016137b6565b9150509250929050565b600080600080600060a08688031215613a0d57613a0c6130d6565b5b6000613a1b88828901613101565b955050602086013567ffffffffffffffff811115613a3c57613a3b6130db565b5b613a4888828901613771565b9450506040613a5988828901613323565b9350506060613a6a888289016137b6565b9250506080613a7b888289016137b6565b9150509295509295909350565b600081519050919050565b600082825260208201905092915050565b6000613aaf82613a88565b613ab98185613a93565b9350613ac98185602086016131a4565b613ad2816131d7565b840191505092915050565b60006020820190508181036000830152613af78184613aa4565b905092915050565b7f4e487b7100000000000000000000000000000000000000000000000000000000600052602260045260246000fd5b60006002820490506001821680613b4657607f821691505b602082108103613b5957613b58613aff565b5b50919050565b7f4f6e6c79204f776e65722063616e206578656375746520746869732066756e6360008201527f74696f6e00000000000000000000000000000000000000000000000000000000602082015250565b6000613bbb602483613193565b9150613bc682613b5f565b604082019050919050565b60006020820190508181036000830152613bea81613bae565b9050919050565b7f416c72656164795175657565644572726f720000000000000000000000000000600082015250565b6000613c27601283613193565b9150613c3282613bf1565b602082019050919050565b60006020820190508181036000830152613c5681613c1a565b9050919050565b7f4e487b7100000000000000000000000000000000000000000000000000000000600052601160045260246000fd5b6000613c9782613262565b9150613ca283613262565b9250827fffffffffffffffffffffffffffffffffffffffffffffffffffffffffffffffff03821115613cd757613cd6613c5d565b5b828201905092915050565b7f54696d657374616d704e6f74496e52616e67654572726f720000000000000000600082015250565b6000613d18601883613193565b9150613d2382613ce2565b602082019050919050565b60006020820190508181036000830152613d4781613d0b565b9050919050565b60008190508160005260206000209050919050565b60006020601f8301049050919050565b600082821b905092915050565b600060088302613db07fffffffffffffffffffffffffffffffffffffffffffffffffffffffffffffffff82613d73565b613dba8683613d73565b95508019841693508086168417925050509392505050565b6000819050919050565b6000613df7613df2613ded84613262565b613dd2565b613262565b9050919050565b6000819050919050565b613e1183613ddc565b613e25613e1d82613dfe565b848454613d80565b825550505050565b600090565b613e3a613e2d565b613e45818484613e08565b505050565b5b81811015613e6957613e5e600082613e32565b600181019050613e4b565b5050565b601f821115613eae57613e7f81613d4e565b613e8884613d63565b81016020851015613e97578190505b613eab613ea385613d63565b830182613e4a565b50505b505050565b600082821c905092915050565b6000613ed160001984600802613eb3565b1980831691505092915050565b6000613eea8383613ec0565b9150826002028217905092915050565b613f0382613188565b67ffffffffffffffff811115613f1c57613f1b613674565b5b613f268254613b2e565b613f31828285613e6d565b600060209050601f831160018114613f645760008415613f52578287015190505b613f5c8582613ede565b865550613fc4565b601f198416613f7286613d4e565b60005b82811015613f9a57848901518255600182019150602085019450602081019050613f75565b86831015613fb75784890151613fb3601f891682613ec0565b8355505b6001600288020188555050505b505050505050565b6000613fd88385613193565b9350613fe5838584613720565b613fee836131d7565b840190509392505050565b600060608201905061400e600083018761326c565b8181036020830152614021818587613fcc565b9050614030604083018461326c565b95945050505050565b600060608201905061404e6000830187613253565b61405b6020830186613179565b818103604083015261406e818486613fcc565b905095945050505050565b7f5468652074696d656c6f636b20706572696f642068617320746f20626520696e60008201527f2074686520667574757265000000000000000000000000000000000000000000602082015250565b60006140d5602b83613193565b91506140e082614079565b604082019050919050565b60006020820190508181036000830152614104816140c8565b9050919050565b7f42616c616e6365206973206c6f772e20416464206d6f72652066756e64730000600082015250565b6000614141601e83613193565b915061414c8261410b565b602082019050919050565b6000602082019050818103600083015261417081614134565b9050919050565b600081905092915050565b50565b6000614192600083614177565b915061419d82614182565b600082019050919050565b60006141b382614185565b9150819050919050565b7f4661696c656420746f2073656e64204574686572000000000000000000000000600082015250565b60006141f3601483613193565b91506141fe826141bd565b602082019050919050565b60006020820190508181036000830152614222816141e6565b9050919050565b600060408201905061423e600083018561326c565b61424b602083018461326c565b9392505050565b600060a082019050818103600083015261426c81886131e8565b905061427b6020830187613253565b6142886040830186613253565b614295606083018561326c565b6142a2608083018461326c565b9695505050505050565b7f54686973206465706f73697420686173206265656e20636c61696d656420616c60008201527f7265616479000000000000000000000000000000000000000000000000000000602082015250565b6000614308602583613193565b9150614313826142ac565b604082019050919050565b60006020820190508181036000830152614337816142fb565b9050919050565b7f4e487b7100000000000000000000000000000000000000000000000000000000600052603260045260246000fd5b7f4e6f745175657565644572726f72000000000000000000000000000000000000600082015250565b60006143a3600e83613193565b91506143ae8261436d565b602082019050919050565b600060208201905081810360008301526143d281614396565b9050919050565b7f5265696d62757273656d656e74204572726f7200000000000000000000000000600082015250565b600061440f601383613193565b915061441a826143d9565b602082019050919050565b6000602082019050818103600083015261443e81614402565b9050919050565b600061445082613262565b91507fffffffffffffffffffffffffffffffffffffffffffffffffffffffffffffffff820361448257614481613c5d565b5b600182019050919050565b7f416d6f756e744c6f774572726f72000000000000000000000000000000000000600082015250565b60006144c3600e83613193565b91506144ce8261448d565b602082019050919050565b600060208201905081810360008301526144f2816144b6565b9050919050565b7f4e6f4465706f736974466f756e644572726f7200000000000000000000000000600082015250565b600061452f601383613193565b915061453a826144f9565b602082019050919050565b6000602082019050818103600083015261455e81614522565b9050919050565b600061457082613262565b915061457b83613262565b92508282101561458e5761458d613c5d565b5b828203905092915050565b7f42616c616e6365206c6f772e20546f70757020796f7572206163636f756e7400600082015250565b60006145cf601f83613193565b91506145da82614599565b602082019050919050565b600060208201905081810360008301526145fe816145c2565b9050919050565b7f5468657265206973206e6f206465706f736974206173736f636961746564207760008201527f6974682074686973206964000000000000000000000000000000000000000000602082015250565b6000614661602b83613193565b915061466c82614605565b604082019050919050565b6000602082019050818103600083015261469081614654565b9050919050565b600060608201905081810360008301526146b181866131e8565b90506146c0602083018561326c565b6146cd604083018461326c565b949350505050565b7f54696d657374616d704e6f745061737365644572726f72000000000000000000600082015250565b600061470b601783613193565b9150614716826146d5565b602082019050919050565b6000602082019050818103600083015261473a816146fe565b9050919050565b7f54696d657374616d70457870697265644572726f720000000000000000000000600082015250565b6000614777601583613193565b915061478282614741565b602082019050919050565b600060208201905081810360008301526147a68161476a565b9050919050565b60006147b98385614177565b93506147c6838584613720565b82840190509392505050565b60006147df8284866147ad565b91508190509392505050565b60007fffffffff0000000000000000000000000000000000000000000000000000000082169050919050565b6000819050919050565b61483261482d826147eb565b614817565b82525050565b6000819050919050565b61485361484e826130e0565b614838565b82525050565b60006148658285614821565b6004820191506148758284614842565b6020820191508190509392505050565b600061489082613a88565b61489a8185614177565b93506148aa8185602086016131a4565b80840191505092915050565b60006148c28284614885565b915081905092915050565b7f54784661696c65644572726f7200000000000000000000000000000000000000600082015250565b6000614903600d83613193565b915061490e826148cd565b602082019050919050565b60006020820190508181036000830152614932816148f6565b9050919050565b60008154905061494881613b2e565b9050919050565b81810361495d575050614a35565b61496682614939565b67ffffffffffffffff81111561497f5761497e613674565b5b6149898254613b2e565b614994828285613e6d565b6000601f8311600181146149c357600084156149b1578287015490505b6149bb8582613ede565b865550614a2e565b601f1984166149d187613d4e565b96506149dc86613d4e565b60005b82811015614a04578489015482556001820191506001850194506020810190506149df565b86831015614a215784890154614a1d601f891682613ec0565b8355505b6001600288020188555050505b5050505050505b565b7f4e487b7100000000000000000000000000000000000000000000000000000000600052603160045260246000fdfea2646970667358221220009d64261cffb669bb07954a3c25e768e70d8f0e42ff88fd103c9c577be8153764736f6c634300080f0033a2646970667358221220b28df80ae4c10ea3a9c470938545733cb24eb5083f23fa63b4f6f2778a021f2764736f6c634300080f0033",
  "immutableReferences": {},
  "source": "// SPDX-License-Identifier: MIT\npragma solidity >=0.4.22 <0.9.0;\n\nimport \"./Timelock.sol\";\n\ncontract TimelockFactory {\n    // Timelock Smart Contract variable\n    Timelock timelock;\n    // Owner of the factory contract\n    address public owner;\n\n    // Mapping which stores all the wallets created by an account (account => wallet[])\n    mapping(address => address[]) wallets;\n\n    // Modifiers\n    // Ensures that only the timelock contract can access a specific resource\n    modifier onlyTimelock() {\n        require(\n            msg.sender == address(timelock),\n            \"Only Timelock can access this resource\"\n        );\n        _;\n    }\n\n    // Events\n    // Broadcast a event whenever a new Timelocked Contract is deployed and instantiated\n    // @param _wallet which is the wallet newly created\n    // @param _owner which is the account that created the wallet\n    // @param _description which is a brief description of the wallet\n    // @param _createdAt which is timestamp when the wallet was created\n    event WalletCreatedEvent(\n        address indexed _wallet,\n        address indexed _owner,\n        string _description,\n        uint256 _createdAt\n    );\n\n    constructor(address payable _timelockContractAddress) {\n        // initialize the timelock contract variable\n        timelock = Timelock(_timelockContractAddress);\n        // Set the owner of the timelock factory\n        owner = msg.sender;\n    }\n\n    // Returns an array of wallets created by the account calling the function\n    // @return _wallets\n    function getWallets() public view returns (address[] memory _wallets) {\n        return wallets[msg.sender];\n    }\n\n    // Returns an address of newly created wallet by the account calling the function\n    // @param _description which is a description of the newly created wallet\n    // @return wallet\n    function newTimeLockedWallet(string memory _description)\n        public\n        returns (address wallet)\n    {\n        // Create new instance of the Timelock contract and return the address\n        wallet = address(new Timelock(_description, msg.sender));\n\n        // Store the wallet inside the wallets mapping for the current account\n        wallets[msg.sender].push(wallet);\n\n        // Emit an event\n        emit WalletCreatedEvent(\n            wallet,\n            msg.sender,\n            _description,\n            block.timestamp\n        );\n\n        // Return the newly created wallet\n        return wallet;\n    }\n\n    // Transfer funds to the recipient of the deposit. This can only be called by the timelock contract\n    // @param _txId id of the transaction of be executed\n    function transferFunds(bytes32 _txId) external payable onlyTimelock {\n        (\n            ,\n            ,\n            ,\n            // bytes32 depositId\n            // string memory description\n            // address from\n            address to,\n            uint256 amount, // uint256 timestamp // bool claimed\n            ,\n\n        ) = timelock.queued(_txId);\n        (bool sent, ) = payable(to).call{value: amount}(\"\");\n        require(sent, \"Failed to send Ether\");\n    }\n}\n",
  "sourcePath": "/Users/chris/Downloads/Projects/Business/timelock/contracts/TimelockFactory.sol",
  "compiler": {
    "name": "solc",
    "version": "0.8.15+commit.e14f2714.Emscripten.clang"
  },
  "schemaVersion": "3.4.8",
  "updatedAt": "2022-11-26T20:26:20.884Z",
  "devdoc": {
    "kind": "dev",
    "methods": {},
    "version": 1
  },
  "userdoc": {
    "kind": "user",
    "methods": {},
    "version": 1
  }
}